:100000000C94441C0C94841C0C94841C0C94841C30
:100010000C94841C0C94841C0C94841C0C94841CE0
:100020000C94841C0C94841C0C94841C0C94841CD0
:100030000C94841C0C94841C0C94841C0C94841CC0
:100040000C94841C0C9442E80C94841C0C94841C26
:100050000C94841C0C946DDD0C94841C0C947CCB4F
:100060000C94841C0C940E400C9404400C94841C3E
:100070000C94841C0C94841C0C94841C0C94841C80
:100080000C9495300C94841C0C94841C0C94841C4B
:100090000C94841C0C94841C0C94841C0C94841C60
:1000A0000C94841C0C94841C0C9467300C94841C59
:1000B0000C94841C0C94841C0C94841C0C94841C40
:1000C0000C94841C0C94841C0C94841C0C945E3141
:1000D0000C9428310C94841C0C94841C0C94841C67
:1000E0000C94841C084AD73B3BCE016E84BCBFFDF8
:1000F000C12F3D6C74319ABD56833DDA3D00C77FF8
:1001000011BED9E4BB4C3E916BAAAABE0000008090
:100110003F05A84CCDB2D44EB93836A9020C50B91F
:10012000918688083CA6AAAA2ABE000000803F004B
:100130000D942C1E0D94761E0D94C01E0D940A2F46
:100140000D94512F0D949D290D946B340D9411290C
:100150000D9429290D94511E0D945A1D0D941729A3
:100160000D94E12E0D942C290D94DB280D941A2961
:100170000D9426290D941D290D9414290D942029E0
:100180000D9499290D949B1E0D94E51E0D94BE1D92
:100190000D949A1D0D941F2F0D94E21D0D9423298B
:1001A0000D940E290D944D340D946C294E414E49F9
:1001B0004E495459494E46CDCCCC3D0AD7233C1725
:1001C000B7D13877CC2B329595E6241FB14F0A0072
:1001D0000020410000C84200401C4620BCBE4CCA62
:1001E0001B0E5AAEC59D7400407A10F35A00A072DF
:1001F0004E18090010A5D4E80000E8764817000062
:10020000E40B54020000CA9A3B000000E1F505002F
:100210000080969800000040420F000000A0860178
:10022000000000102700000000E803000000006448
:1002300000000000000A00000000000100000000B3
:10024000002C76D888DC674F0823DFC1DFAE59E188
:10025000B1B796E5E3E453C63AE651997696E8E6F7
:10026000C28426EB898C9B62ED407C6FFCEFBC9CCA
:100270009F40F2BAA56FA5F490055A2AF75C936BDC
:100280006CF9676DC11BFCE0E40D47FEF520E6B597
:1002900000D0ED902E0300943577050080841E0871
:1002A0000000204E0A000000C80C333333330F988F
:1002B0006E12831141EF8D2114893BE65516CFFE56
:1002C000E6DB18D1844B381BF77C1D901DA4BBE4E2
:1002D00024203284725E228100C9F124ECA1E53D24
:1002E00027434F4D4D554E49434154494F4E0044CD
:1002F000525952554E004552524F525300494E46A4
:100300004F004543484F004572726F722077726903
:1003100074696E6720746F20454550524F4D210A15
:100320000053544F505045442E20005072696E7453
:1003300065722073746F70706564206475652074D5
:100340006F206572726F72732E2046697820746810
:1003500065206572726F7220616E6420757365200E
:100360004D39393920746F20726573746172742E3F
:10037000202854656D7065726174757265206973AB
:100380002072657365742E20536574206974206132
:10039000667465722072657374617274696E672920
:1003A0000A004E6F20436865636B73756D20776933
:1003B0007468206C696E65206E756D6265722C20A4
:1003C0004C617374204C696E653A20004E6F204377
:1003D0006865636B73756D2077697468206C696EEE
:1003E00065206E756D6265722C204C617374204CB3
:1003F000696E653A2000636865636B73756D206D87
:1004000069736D617463682C204C617374204C694E
:100410006E653A20004C696E65204E756D6265729E
:10042000206973206E6F74204C617374204C696E68
:1004300065204E756D6265722B312C204C61737492
:10044000204C696E653A20004D31313000536572A1
:1004500069616C20737461747573206D69736D616B
:100460007463680A00776169740A005344207265F6
:100470006164206572726F720A00746F6F206D750F
:10048000636820696E6163746976652074696D655F
:10049000202D2063757272656E7420636F6D6D61BF
:1004A0006E643A20002121204B494C4C2063617539
:1004B0007365642062792000486F74656E6420491A
:1004C000646C652054696D656F757400486F746560
:1004D0006E642049646C652054696D656F75740A9B
:1004E000003D3D6F6E46696C616D656E7452756E50
:1004F0006F75743D3D007061757365004D36303029
:10050000002066696C616D656E745F72756E6F75E3
:1005100074200066696C616D656E745F72756E6FD4
:10052000757420540046696C616D656E7452756E09
:100530006F75742054004D31303030530062757344
:10054000793A2070617573656420666F7220696EF8
:100550007075740A00627573793A207061757365FD
:100560006420666F7220757365720A006275737914
:100570003A2070726F63657373696E670A00255362
:100580003A202553002A2A2A6B696C6C2A2A2A00F1
:10059000706F7765726F6666004B494C4C45442E10
:1005A00020005072696E7465722068616C746564B5
:1005B0002E206B696C6C28292063616C6C6564214A
:1005C0000A006563686F3A004572726F723A0042C2
:1005D000696C696E656172204C6576656C696E67E1
:1005E00020477269643A0A002F2F616374696F6E45
:1005F0003A006E6F74696669636174696F6E20009A
:10060000656E640073686F7700627574746F6E0056
:10061000486F74656E6420746F6F20636F6C640A3A
:100620000053656E64204D31303820746F20726540
:1006300073756D650A00496E736572742066696C26
:10064000616D656E7420616E642073656E64204D0B
:100650003130380A0052656865617420446F6E65F8
:1006600000526568656174696E672E2E2E005265B2
:1006700068656174004865617465722054696D65D0
:100680006F75740053656E64204D31303820746F7F
:100690002068656174206E6F7A7A6C650A004E6F0F
:1006A0007A7A6C65205061726B6564007061757355
:1006B00065640050617573650057616974696E67A0
:1006C00020666F72206865617475702E0A004C6533
:1006D0006176696E6720473236003F537065636903
:1006E0006669656420582C5920636F6F7264696E67
:1006F000617465206F7574206F6620626F756E641B
:10070000732E0A003F285229657065617420766156
:100710006C7565206E6F7420706C61757369626CA6
:10072000653B206D757374206265206174206C6573
:1007300061737420312E0A003F285229657065616B
:1007400074206D75737420626520737065636966CB
:10075000696564207768656E206E6F7420757369B3
:100760006E6720616E204C43442E0A003F53706533
:10077000636966696564206E6F7A7A6C652074655A
:100780006D7065726174757265206E6F7420706C27
:1007900061757369626C652E0A003F537065636909
:1007A000666965642066696C616D656E7420736945
:1007B0007A65206E6F7420706C61757369626C6508
:1007C0002E0A003F53706563696669656420707224
:1007D000696D65206C656E677468206E6F7420703B
:1007E0006C61757369626C652E0A003F5072696DA9
:1007F00065206C656E677468206D75737420626522
:1008000020737065636966696564207768656E202A
:100810006E6F74207573696E6720616E204C43445F
:100820002E0A003F537065636966696564206E6FC8
:100830007A7A6C652073697A65206E6F7420706CAB
:1008400061757369626C652E0A003F52657472614E
:100850006374696F6E204D756C7469706C69657234
:10086000206D7573742062652073706563696669B5
:1008700065642E0A003F537065636966696564208C
:1008800052657472616374696F6E204D756C746922
:10089000706C696572206E6F7420706C617573691D
:1008A000626C652E0A003F53706563696669656412
:1008B000206C6179657220686569676874206E6F65
:1008C0007420706C61757369626C652E0A0043292F
:1008D0002E0A003F5370656369666965642062652E
:1008E000642074656D7065726174757265206E6FD9
:1008F0007420706C61757369626C65202834302DCA
:1009000000473236207374617274696E672E2E2E22
:100910000A004F46460A00466164652048656967DB
:1009200068742000426564204C6576656C696E676A
:1009300020004661696C656420746F20656E616299
:100940006C6520426564204C6576656C696E670A4B
:1009500000496E76616C6964206D6573682E0A00CB
:1009600050726F62696E6720506F696E7400255314
:100970002025692F2569002E0A002F0050726F6212
:10098000696E67206D65736820706F696E742000F2
:10099000202844525952554E29004732392041757A
:1009A000746F20426564204C6576656C696E6700E3
:1009B0003F20284C2C522C462C4229206F75742045
:1009C0006F6620626F756E64732E0A003F28562989
:1009D0006572626F7365206C6576656C20696D70F9
:1009E0006C61757369626C652028302D34292E0A7C
:1009F00000426164205A2076616C75650A004E6F72
:100A00002062696C696E65617220677269640A00B0
:100A10005A2050726F626520506173742042656481
:100A20000A005A2050726F62652050617374204230
:100A30006564004163637572616379204465637224
:100A4000656173696E6721004465637265617369EE
:100A50006E672041636375726163792044657465D4
:100A6000637465642E0A00473238004732385A00F2
:100A700041636375726163793A2000206F662000DC
:100A800044696420004733342061626F7274656486
:100A90002E0A00416363757261637920416368695E
:100AA000657665640054617267657420616363757F
:100AB000726163792061636869657665642E0A00F6
:100AC000313A323D2573000A5A322D5A313D0050D9
:100AD000726F62696E67204661696C65640050726E
:100AE0006F62696E67206661696C65640A004733EE
:100AF0003420497465726174696F6E3A202569000B
:100B00000A47333420497465726174696F6E3A2004
:100B1000003F2841296D706C696669636174696F73
:100B20006E206F7574206F6620626F756E6473201F
:100B300028302E352D322E30292E0A003F285429F8
:100B40006172676574206163637572616379206F98
:100B50007574206F6620626F756E64732028302E66
:100B600030312D312E30292E0A003F284929746555
:100B7000726174696F6E206F7574206F6620626F8A
:100B8000756E64732028312D3330292E0A00202001
:100B90004D3432322053005A204175746F2D416C10
:100BA00069676E0020440020204D32303020530011
:100BB000202844697361626C6564293A0046696C57
:100BC000616D656E742073657474696E677300205F
:100BD000204D3230312058004D61782041636365EB
:100BE0006C65726174696F6E2028756E6974732FFD
:100BF0007332290020204D3230332058004D617867
:100C0000206665656472617465732028756E697409
:100C1000732F73290020520020204D323034205091
:100C200000416363656C65726174696F6E2028753D
:100C30006E6974732F7332292028503C7072696E6C
:100C4000742D616363656C3E20523C726574726101
:100C500063742D616363656C3E20543C74726176ED
:100C6000656C2D616363656C3E2900205400205340
:100C70000020204D323035204200416476616E63A1
:100C800065642028423C6D696E5F7365676D656EB3
:100C9000745F74696D655F75733E20533C6D696E5A
:100CA0005F66656564726174653E20543C6D696E73
:100CB0005F74726176656C5F6665656472617465A8
:100CC0003E20583C6D61785F6A65726B3E20593CEE
:100CD0006D61785F6A65726B3E205A3C6D61785F2A
:100CE0006A65726B3E20453C6D61785F6A65726B28
:100CF0003E290020440020490020204D333031207F
:100D00005000486F74656E642050494400204400D0
:100D100020490020204D33303420500042656420AB
:100D2000504944003A200020536572766F2000201D
:100D30006F7574206F662072616E67650A00536577
:100D400072766F2000203B0020550020204D363069
:100D500033204C0046696C616D656E74206C6F6168
:100D6000642F756E6C6F6164004D323453256C6472
:100D700054256C64004739322E39452573004731BC
:100D80004625640047315A257346363030004731D6
:100D90005825735925734633303030004D31303685
:100DA000502569532569004D313039532569004D6F
:100DB000323030442573004739322E395A257300BA
:100DC0004D3432305325635A257300473238523040
:100DD00058590047315A257346363030004739326A
:100DE0002E395A2573004739322E394530004D319E
:100DF0003039532569004D313930532569004D3460
:100E00003230205330205A30003D3D4F6E506F77C6
:100E100065724C6F7373526573756D653D3D00204F
:100E20003B200020204D343133205300506F776534
:100E3000722D6C6F7373207265636F7665727900C3
:100E40004F4646004F4E00203B20486F7374206889
:100E5000616E646C696E672000203B204D6F646595
:100E600020006D6D00203B2044697374616E6365E2
:100E7000200046696C616D656E742072756E6F75C9
:100E80007420003B200020496E76616C6964206507
:100E900078747275646572200047322F4733206280
:100EA000616420706172616D65746572730A0053CC
:100EB0006C6565702E2E2E004732384C3000205A5B
:100EC0003A200020593A200042656420583A200018
:100ED0004D65736820706F696E74206F7574206F34
:100EE000662072616E67650A004E6F204D6F7665F1
:100EF0002E00456E642066696C65206C6973740A07
:100F000000426567696E2066696C65206C69737460
:100F10000A004E6F206D656469610A00286E6F20BB
:100F200066696C65290043757272656E7420666926
:100F30006C653A200043616E6E6F74206F70656E51
:100F40002073756264697220005072696E74207437
:100F5000696D653A2000363726033C3D380E2E3049
:100F60003E1224221E1A1C180A430908440001508C
:100F7000726F7465637465642050696E0A003F4344
:100F8000616E6E6F7420777269746520746F20498A
:100F90004E5055540A00496E76616C696420506960
:100FA0006E204D6F64650A006F6B006F666600020D
:100FB00003FD02F602EF02E10244454255473A00C2
:100FC0004D313133205300544D33442045352050AA
:100FD0006C7573204F46462E00434F4E4649475F7F
:100FE0004558504F5254004D4541545041434B00D9
:100FF000434F4F4C45525F54454D50455241545517
:101000005245004348414D4245525F54454D50457D
:101010005241545552450042414259535445505053
:10102000494E470041524353004D4F54494F4E5F84
:101030004D4F44455300544845524D414C5F50522A
:101040004F54454354494F4E00455854454E44452E
:10105000445F4D323000435553544F4D5F46495223
:101060004D574152455F55504C4F4144004C464E00
:101070005F5752495445004C4F4E475F46494C45D7
:101080004E414D45004155544F5245504F52545FCB
:1010900053445F5354415455530053445F5752498E
:1010A000544500524550454154004D554C54495FFC
:1010B000564F4C554D450053444341524400505205
:1010C0004F4D50545F535550504F525400484F535A
:1010D000545F414354494F4E5F434F4D4D414E4441
:1010E0005300454D455247454E43595F5041525379
:1010F000455200434153455F4C494748545F425273
:10110000494748544E45535300544F47474C455F59
:101110004C494748545300534F4654574152455F3A
:10112000504F574552004255494C445F5045524339
:10113000454E54004C4556454C494E475F4441543A
:1011400041005A5F50524F42450052554E4F555440
:10115000004155544F4C4556454C005052494E5451
:101160005F4A4F420050524F47524553530041553A
:10117000544F5245504F52545F54454D50004155C5
:10118000544F5245504F52545F504F5300564F4C9E
:10119000554D455452494300454550524F4D00422C
:1011A000494E4152595F46494C455F5452414E5356
:1011B0004645520053455249414C5F584F4E5F5887
:1011C0004F4646004649524D574152455F4E414DAC
:1011D000453A4D61726C696E204457372E342E3774
:1011E00020544D334420453550454D44424220283B
:1011F0004F637420323520323032332031383A3464
:10120000353A30302920534F555243455F434F44C0
:10121000455F55524C3A68747470733A2F2F676962
:10122000746875622E636F6D2F496E73616E697499
:10123000794175746F6D6174696F6E2F4D61726C59
:10124000696E2F747265652F437265616C6974797C
:101250004477696E5F322E302050524F544F434FC7
:101260004C5F56455253494F4E3A312E30204D4136
:101270004348494E455F545950453A544D334420F4
:10128000453520506C75732045585452554445528D
:101290005F434F554E543A3120555549443A6365A2
:1012A0006465326132662D343161322D3437343821
:1012B0002D396231322D6335356336326633363738
:1012C0006666002F2F005741524E494E4721204C51
:1012D0006F77205A204A65726B206D6179206C65AA
:1012E000616420746F20756E77616E746564207020
:1012F00061757365732E0A0020580020204D6178B7
:101300003A2000200020204D696E3A2000203B202A
:101310000020204D323131205300536F6674206518
:101320006E6473746F707300250A0046523A002091
:10133000466C6F773A200050726F6265204F666688
:10134000736574205A0050726F6265204F66667331
:101350006574205A0064697300656E0043290A00B1
:1013600061626C656420286D696E2074656D702003
:1013700000436F6C642065787472756465732061D6
:1013800072652000424C546F756368204853206D8D
:101390006F646520004D34323120696E636F727264
:1013A00065637420706172616D6574657220757318
:1013B0006167650A004D65736820706F696E7420FF
:1013C0006F7574206F662072616E67650A0045450F
:1013D00050524F4D204F4B0A00290A0020746F20B5
:1013E000003F5A206F7574206F662072616E6765CA
:1013F000202800290A0020746F20003F59206F75B3
:1014000074206F662072616E676520282D00290A9E
:101410000020746F20003F58206F7574206F662085
:1014200072616E676520282D002E0A002028302D5D
:10143000313029002076616C7565206F7574206FDE
:10144000662072616E676500416476616E63652037
:101450004B3D003F285929206F7574206F6620622C
:101460006F756E64732E0A003F285829206F7574BB
:10147000206F6620626F756E64732E0A0020696E9D
:1014800064657820696E76616C69642028312E2E3F
:1014900032292E0A003F2853292050726F62652D91
:1014A000706F736974696F6E003F285329206973E8
:1014B0002072657175697265642E0A004D383400BA
:1014C000446F6E65207072696E74696E672066691C
:1014D0006C650A004D3737004D33310020204D3206
:1014E0003036205800486F6D65206F6666736574EE
:1014F000004F666673657473204170706C69656433
:10150000004572723A20546F6F2066617221005458
:101510006F6F206661722066726F6D2072656665FE
:1015200072656E636520706F696E740A0043617046
:101530003A00626567696E004D302053746F700029
:101540004D312053746F7000436C69636B20746F6E
:1015500020526573756D652E2E2E00203B002020D5
:101560004D3835312058005A2D50726F6265204F2A
:10157000666673657400526573756D696E67205396
:1015800044002569730025696D202569730025696C
:10159000682025696D202569730025696420256907
:1015A000682025696D2025697300256979202569E2
:1015B00064202569682025696D20256973000A5318
:1015C000746174733A2046696C616D656E74207540
:1015D0007365643A20002C204C6F6E67657374202D
:1015E0006A6F623A2000546F74616C2074696D6593
:1015F0003A200053746174733A20002C20466169CC
:101600006C65643A20002C2046696E6973686564D5
:101610003A20005072696E74733A200053746174FA
:10162000733A2000436F6F6C696E672E2E2E004553
:10163000312025530042656420436F6F6C696E67EB
:101640002E2E2E004265642048656174696E672EF7
:101650002E2E00504944204175746F74756E6500DC
:10166000206661696C65642120426164206865615F
:101670007465722069640A00504944204175746F92
:1016800074756E65003D3D4477696E20496E6974DE
:1016900020436F6D706C6574653D3D001000C9029C
:1016A00010012C014001220170011801B0010E014E
:1016B000F00104015002FA00B002F0003003E6002D
:1016C000D003DC009004D2007005C800A006BE0064
:1016D0000008B400B009AA00D00BA000600E96006C
:1016E00060118C000015820020197800C01D6E006A
:1016F000A0226400B0275A00902C50000031460010
:10170000E0343C0010383200903A2800603C1E0063
:10171000A03D1400803E0A00203F00000000210090
:10172000240027002A002D003000330001010000B2
:10173000040107010A0100002200250028002B00F7
:101740002E003100340002010000050108010B01E8
:10175000000020002300260029002C002F0032006A
:101760000001000003010601090105050505070543
:1017700008080808020202020A0A0808040404040D
:101780000101010101010101030303030303030339
:10179000040707070C0C0C0C0C0C0C0C02020202C8
:1017A00006060606060606060B0B0B0B0B0B0B0BB1
:1017B0000102102020080810204010204080020163
:1017C0000201080402010102040810204080804048
:1017D0002010080402018004020180402010080447
:1017E00002010804020101020408102040800102E5
:1017F00004081020408000000A0B02090C0D0E089E
:1018000007030401000000000000000000000000C9
:1018100000000000000000000000000000000000C8
:101820000000121110000000000000000000000085
:101830000000000000000000000000007026000012
:101840009B1E0000C3150000C70D0000F407000038
:101850004F040000400200002601000020746F6F5A
:10186000206C6F6E6720657874727573696F6E2077
:1018700070726576656E7465640A0020636F6C64CF
:1018800020657874727573696F6E20707265766505
:101890006E7465640A004D323520500A4D323400B2
:1018A000526573756D65005549205061757365000B
:1018B00043616E6E6F7420656E746572207375621D
:1018C0006469723A20004E6F204D61746368203A5B
:1018D00000436F6E73747261696E206D6573685634
:1018E000616C20006D65736856616C200079506EE4
:1018F00074200078506E7420006D657368506F69B5
:101900006E742000446973706C6179427269676813
:10191000746E657373205365743A20004469737064
:101920006C61794272696768746E657373204C43A9
:10193000443A20004D32320A4D323100526566720F
:101940006573680050675570005067446F776E008C
:1019500049732046696C65200049732044697220F0
:1019600000476F557044697200486173204D65648B
:1019700069610046696C656E616D652053656C65D3
:1019800063746564004D3130303043004D31303088
:1019900030002046696C616D656E7420526573700D
:1019A0006F6E7365204E6F00526573756D652059BB
:1019B000657320647572696E67207072696E740059
:1019C0000A204E6F2046696C616D656E7400496E29
:1019D00076616C6964204F7074696F6E004D3530AC
:1019E000300053746F72652053657474696E677349
:1019F000004D3939390A4D32383050305331363094
:101A000000424C546F756368205265736574004DD5
:101A10003530320A4D35303000496E697420454505
:101A200050524F4D004D3530300053746F72652069
:101A300053657474696E677300496E4C616E6743D9
:101A4000686F696365000A202A2A2A7265636461E7
:101A5000742E646174615B305D203D004732380A4A
:101A60004731204631303030205A313000556E73C6
:101A70007570706F72746564204F7074696F6E203A
:101A800053656C6563746564004D36303553300AB8
:101A900047323858004D36303553310A54300A47F2
:101AA00032380A4D36303553320A473238580A47F1
:101AB0003158300A4D3630355333004D36303553BA
:101AC000310A54300A4732380A4D36303553320A1B
:101AD000473238580A47315830004D363035533187
:101AE0000A473238580A47315830004D32313153A5
:101AF000300A4739310A47315A302E3032350A47D9
:101B000039300A4D3231315331004D323131533099
:101B10000A4739310A47315A2D302E3032350A47BB
:101B200039300A4D323131533100473239533200A6
:101B300047323953310047323652323535004D3154
:101B400039305335350A4732380A47333449380A71
:101B50004732390A4D3430300A4D31303453323146
:101B6000350A4732380A4D313039533231350A4D52
:101B700034323053310A47315831303059313030F6
:101B800046353030300A47315A300A4D3530300A48
:101B90004D31313720536574205A204F6666736586
:101BA00074004731204631303030205A302E30001A
:101BB0004732380A4731204631303030205A302EF3
:101BC00030005A204F6666736574203A20257300F2
:101BD0005A204F6666736574203A20257300473299
:101BE000385A0A473146313530305A302E300047A6
:101BF00032380A473146313530305A302E300042C3
:101C00006564204C6576656C204F7074696F6E203A
:101C10000052657475726E203A20004D38340047CA
:101C20003146313030305A302E30004732380A4792
:101C30003146313030305A302E30004D616E756192
:101C40006C53657454656D70005A204F66667365F9
:101C500074203A20257300526F756E64696E672098
:101C6000746F207374657000526571756573746567
:101C700064204F6666736574200053746F7020543F
:101C800072696767657265640053746F70204E6F88
:101C90000053746F705072696E740048616E646CAA
:101CA0006520446174612041646A75737420322038
:101CB00053657474696E672053637265656E2000A6
:101CC00048616E646C652044617461205072696E75
:101CD0007446696C6520332053657474696E67209F
:101CE00053637265656E200048616E646C652044C4
:101CF000617461205072696E7446696C652032208F
:101D000053657474696E672053637265656E200055
:101D10004D38340048616E646C6520446174612004
:101D20005072696E7446696C6520506F7374004818
:101D3000616E646C652044617461205072696E74D8
:101D400046696C652050726500426567696E53771D
:101D500069746368003D3D20436865636B6B65791A
:101D60003D3D007265636461742E61646472203D60
:101D70003D007265636461742E646174615B305D03
:101D8000203D3D0070726F6D70745F006265676921
:101D90006E0044697361626C6552756E6F75740094
:101DA00050757267654D6F7265005061757365643B
:101DB00000436F6E74696E7565004C6F61642046F8
:101DC000696C616D656E742054004C6F61642046CF
:101DD000696C616D656E7400496E7365727420661E
:101DE000696C616D656E7420616E642073656E64EC
:101DF000204D3130380A00726573756D656400449A
:101E000069736D69737300526573756D696E6700F0
:101E100050726F62696E67204661696C65640A0082
:101E200050726F62696E67204661696C656400205C
:101E30005A3A200020593A200042656420583A203E
:101E400000204500205A0020590020204D39322022
:101E5000580053746570732070657220756E6974D4
:101E600000220A00556E6B6E6F776E20636F6D6D8A
:101E7000616E643A2022002042002050006F6B0007
:101E800020453A00205A3A0020593A00583A006F4B
:101E90006B0A00526573656E643A20006E6F746958
:101EA0006669636174696F6E2000544D3344204548
:101EB0003520506C75732052656164792E00507224
:101EC000696E74696E672E2E2E005072696E7420D2
:101ED00050617573656400524553554D45204F5010
:101EE00054494F4E533A0048656174696E672E2E0F
:101EF0002E000000436C69636B20746F206865617D
:101F000074000000526573756D696E672E2E2E0089
:101F1000000050757267696E672E2E2E0000004C0F
:101F20006F6164696E672E2E2E000000496E736526
:101F3000727420616E6420436C69636B000000431F
:101F40006C69636B20746F20636F6E74696E756566
:101F5000000000456A656374696E672E2E2E0000CE
:101F600000506C6561736520776169742E2E2E00B8
:101F700000005061726B696E672E2E2E00000050BB
:101F8000617573654D73673D00454550524F4D2057
:101F90006461746173697A65206572726F722E0A6A
:101FA0000053657474696E6720566F6C756D65209B
:101FB0004F6E203A200053657474696E6720537425
:101FC000616E646279204F6E203A2000536574740C
:101FD000696E6720566F6C756D65203A20005365F9
:101FE0007474696E6720526F746174696F6E203A01
:101FF000200053657474696E67205374616E646267
:10200000792054696D65203A200053657474696EB7
:1020100067205374616E646279203A2000536574BE
:1020200074696E67204272696768746E65737320A5
:102030003A20004C6F6164696E67204457494E2016
:102040004C43442073657474696E672066726F6DCB
:1020500020454550524F4D0A0044697363617264D4
:10206000696E67204457494E204C43442073657481
:1020700074696E672066726F6D20454550524F4DF2
:10208000202D2073657474696E6773207665727392
:10209000696F6E20696E636F72726563740A0044C3
:1020A000697363617264696E67204457494E204CBE
:1020B00043442073657474696E672066726F6D2087
:1020C000454550524F4D202D2073697A6520696E29
:1020D000636F72726563740A0053746F7265642073
:1020E00073657474696E677320726574726965765E
:1020F000656400290A002062797465733B2063726D
:102100006320002073746F72656420736574746952
:102110006E67732072657472696576656420280045
:10212000454550524F4D20435243204572726F72C5
:1021300000202863616C63756C6174656429210AF1
:102140000020213D2000454550524F4D2043524331
:10215000206D69736D61746368202D202873746F1E
:102160007265642920002053697A653A2000496E1F
:102170006465783A200000803B4400803B440000C6
:102180002041000096420000A0420000A042000052
:1021900048440080CC43D0070000D0070000640012
:1021A00000004B000000454550524F4D20566572CF
:1021B00073696F6E204572726F7200204D61726C90
:1021C000696E3D563837290A00454550524F4D201B
:1021D00076657273696F6E206D69736D6174636883
:1021E0002028454550524F4D3D0024F404D9201B72
:1021F000C40C5C0E9804C4095F0265077101F40504
:10220000F900FB04B30048048700C10369005803C8
:10221000550003034500BE023A0084023100530218
:102220002A002902250004022000E4011C00C80144
:102230001900AF0117009801140084011300710107
:1022400010006101100051010E0043010D00360124
:102250000B002B010B0020010B00150109000C01E4
:10226000090003010800FB000800F3000800EB0070
:102270000700E4000600DE000600D8000600D200D9
:102280000600CC000500C7000500C2000500BD0027
:102290000400B9000400B5000400B1000400AD0062
:1022A0000400A9000400A5000300A20003009F0091
:1022B00004009B00030098000300950002009300B7
:1022C0000300900003008D0002008B0003008800D3
:1022D00002008600020084000300810002007F00EB
:1022E00002007D0002007B000200790002007700FE
:1022F000010076000200740002007200010071000B
:1023000002006F0002006D0001006C0002006A0014
:10231000010069000200670001006600010065001D
:102320000100640002006200010061000100600021
:1023300001005F0002005D0001005C0001005B0025
:1023400001005A0001005900010058000100570027
:102350000100560001005500010054000100530027
:102360000000530001005200010051000100500024
:1023700001004F0001004E0000004E0001004D0022
:1023800001004C0001004B0000004B0001004A001E
:10239000010049000100480000004800010047001A
:1023A0000100460000004600010045000000450015
:1023B000010044000100430000004300010042000E
:1023C0000000420001004100000041000100400007
:1023D00001003F0000003F0001003E0000003E0001
:1023E00001003D0000003D0001003C0000003C00F9
:1023F00000003C0001003B0000003B0001003A00EF
:1024000000003A00010039000000390001003800E6
:1024100000003800000038000100370000003700DD
:1024200001003600000036000000360001003500D3
:1024300000003500000035000100340000003400C9
:1024400000003400010033000000330000003300BE
:1024500001003200000032000000320001003100B3
:1024600000003100000031000100300000003000A9
:102470000000300001002F0000002F0000002F009E
:1024800000002F0001002E0000002E0000002E0092
:1024900001002D0000002D0000002D0000002D0087
:1024A00001002C0000002C0000002C0000002C007B
:1024B00001002B0000002B0000002B0000002B006F
:1024C00001002A0000002A0000002A0000002A0063
:1024D0000100290000002900000029000000290057
:1024E000000029000100280000002800000028004A
:1024F000000028000000280001002700000027003D
:10250000000027000000270000002700010026002F
:102510000000260000002600000026000000260023
:102520000100250000002500000025000000250016
:102530000000250000002500010024000000240008
:1025400000002400000024000000240001002300FB
:1025500000002300000023000000230000002300EF
:1025600000002300000023000100220000002200E0
:1025700000002200000022000000220000002200D3
:1025800001002100000021000000210000002100C6
:1025900000002100000021000000210001002000B7
:1025A00000002000000020000000200000002000AB
:1025B00000002000000020000000200001001F009B
:1025C00000001F0000001F0000001F0000001F008F
:1025D00000001F0000001F0001001E0000001E0080
:1025E00000001E0000001E00000024F4D43050C380
:1025F0008E20C2A24017828B7011127A910D816CCD
:10260000D90AA861E108C7586607615143061E4B05
:102610005D05C145A7041A411104093D98037139AC
:1026200031034036DB0265339102D4305402802EF0
:102630001D02632CEE01752AC501B028A0011027E8
:1026400081018F2564012B244B01E0223401AC2150
:102650001F018D200D01801FFC00841EED00971DC1
:10266000DF00B81CD200E61BC600201BBC00641AA9
:10267000B200B219A8000A19A0006A189900D1176F
:10268000910040178B00B516840031167E00B315FB
:1026900079003A157300C7146F0058146A00EE13DE
:1026A00066008813630025135E00C7125B006C127E
:1026B000570015125400C111510070114F00211123
:1026C0004B00D61049008D10470046104400021000
:1026D0004200C00F4000800F3E00420F3C00060F3A
:1026E0003B00CB0E3800930E37005C0E3500270EF2
:1026F0003400F30D3200C10D3100900D3000600D3B
:102700002E00320D2D00050D2C00D90C2B00AE0C27
:102710002900850C29005C0C2700350C27000E0CC5
:102720002600E80B2400C40B2400A00B23007D0B23
:1027300023005A0B2100390B2100180B2000F80A46
:102740001F00D90A1E00BB0A1E009D0A1D00800A38
:102750001D00630A1C00470A1B002C0A1B00110AFB
:102760001A00F7091A00DD091900C4091900AB099C
:102770001900920917007B091800630917004C091A
:10278000160036091600200916000A091500F5087A
:102790001500E0081400CC081400B8081400A408C0
:1027A0001400900813007D0812006B0813005808ED
:1027B0001200460812003408110023081100120804
:1027C000110001081100F0071000E0071000D00709
:1027D0001000C0071000B0070F00A10710009107FC
:1027E0000E0083070F0074070F0065070E005707E0
:1027F0000E0049070E003B070D002E070E002007B4
:102800000D0013070D0006070D00F9060C00ED067C
:102810000D00E0060C00D4060C00C8060C00BC0637
:102820000C00B0060C00A4060B0099060C008D06E7
:102830000B0082060B0077060B006C060B0061068E
:102840000A0057060B004C060A0042060A0038062A
:102850000A002E060A0024060A001A060A001006BC
:10286000090007060A00FD050900F4050900EB054B
:102870000900E2050900D9050900D0050900C705CE
:102880000900BE050900B5050800AD050800A5054D
:1028900009009C050800940508008C0508008405C3
:1028A00008007C050800740508006C050700650534
:1028B00008005D050700560508004E05070047059E
:1028C00007004005080038050700310507002A0504
:1028D0000700230507001C050600160507000F0565
:1028E00007000805060002050700FB040600F504C2
:1028F0000700EE040600E8040600E2040700DB041B
:102900000600D5040600CF040600C9040600C3046F
:102910000600BD040600B7040600B1040500AC04BF
:102920000600A6040600A00405009B04060095040A
:102930000500900406008A04050085040500800453
:1029400006007A04050075040500700405006B0498
:10295000050066040500610405005C0405005704D9
:102960000500520405004D04050048040500430419
:1029700005003E0404003A04050035040500300457
:1029800004002C04050027040400230405001E0491
:1029900004001A04040016040500110404000D04C8
:1029A0000400090405000404040000040400FC03FE
:1029B0000400F8030400F4030400F0030400EC0333
:1029C0000400E8030400E4030400E0030400DC0363
:1029D0000400D8030400D4030400D0030400CC0393
:1029E0000400C8030300C503030020436F756E7421
:1029F00020583A0023646566696E65204445464167
:102A0000554C545F0000626564004B6420004B69C4
:102A100020004B7020005049442074756E696E6729
:102A200020646F6E65002066696E69736865642155
:102A30002050757420746865206C617374204B702D
:102A40002C204B6920616E64204B6420636F6E7391
:102A500074616E74732066726F6D2062656C6F773F
:102A600020696E746F20436F6E666967757261745A
:102A7000696F6E2E680A00504944204175746F7466
:102A8000756E6500206661696C6564212074696DEE
:102A9000656F75740A00504944204175746F7475F0
:102AA0006E65004175746F74756E65206661696C42
:102AB0006564212054696D656F75742E0020666110
:102AC000696C6564212054656D70657261747572FE
:102AD0006520746F6F20686967680A005049442058
:102AE0004175746F74756E65005049442043796375
:102AF0006C65730025532025692F256900204B64E0
:102B00003A2000204B693A2000204B703A200020E8
:102B1000436C617373696320504944200A00204E5E
:102B20006F206F76657273686F6F740A002054753A
:102B30003A2000204B753A2000206D61783A200041
:102B4000206D696E3A200020643A2000206269619D
:102B5000733A200048656174696E672E2E2E00203E
:102B600073746172740A00504944204175746F7423
:102B7000756E65004175746F74756E652066616968
:102B80006C6564212054656D706572617475726541
:102B900020746F6F20686967682E00206661696C19
:102BA0006564212054656D7065726174757265206D
:102BB000746F6F20686967680A0050494420417546
:102BC000746F74756E6500426564004531004500A0
:102BD000626564002C2073797374656D2073746F63
:102BE0007070656421204865617465725F49443A7C
:102BF00020004572723A204D415854454D50004DC9
:102C0000415854454D502074726967676572656418
:102C10000048656174696E67204661696C6564008F
:102C200048656174696E67206661696C6564004D12
:102C3000353234004D3131322053687574646F770A
:102C40006E004572723A204D494E54454D50004D2C
:102C5000494E54454D5020747269676765726564CA
:102C600000544845524D414C2052554E4157415910
:102C700000546865726D616C2052756E6177617980
:102C800000202F002042403A0020403A0020573ACE
:102C90000020573A00496E76616C6964206578744B
:102CA00072756465720A007C3C3E5E2B3D3F2F5B73
:102CB0005D3B2C2A225C0043616E6E6F74206F7046
:102CC000656E2073756264697220004D6564696188
:102CD00020496E6974204661696C00534420636129
:102CE0007264206F6B0A006F70656E526F6F742094
:102CF0006661696C65640A00766F6C756D652E6936
:102D00006E6974206661696C65640A004E6F2053B9
:102D10004420636172640A0053442063617264203A
:102D200072656C65617365640A000A4D3234004D4A
:102D30003233202573002E0A006F70656E206661A5
:102D4000696C65642C2046696C653A200046696CA4
:102D5000652073656C65637465640A002053697A45
:102D6000653A200046696C65206F70656E65643A4F
:102D70002000454E4420535542524F5554494E452C
:102D80000A002220706F73002220706172656E74D9
:102D90003A2200535542524F5554494E4520434123
:102DA0004C4C207461726765743A220053756263FB
:102DB000616C6C204F766572666C6F770045786346
:102DC0006565646564206D617820535542524F55A6
:102DD00054494E452064657074683A002E0A0044D8
:102DE000656C6574696F6E206661696C65642C2022
:102DF00046696C653A200046696C652064656C65BF
:102E00007465643A004E6F74205344207072696E8A
:102E100074696E670A005344207072696E74696E3B
:102E2000672062797465200057726974696E672043
:102E3000746F2066696C653A20006672657368007D
:102E4000646F696E67002066696C653A20004E6F9A
:102E50007720002F6175746F25632E670020205046
:102E60006C616E6E657242756666657242797465F4
:102E7000733A20002046726565204D656D6F72794A
:102E80003A200020436F6D70696C65643A204F638F
:102E90007420323520323032330A00204C61737492
:102EA00020557064617465643A20323032332D30BD
:102EB000322D3033207C20417574686F723A205473
:102EC000696E794D616368696E657333440A004DBC
:102ED00061726C696E204457372E342E370A0020F9
:102EE000536F6674776172652052657365740A006A
:102EF000205761746368646F672052657365740A54
:102F0000002042726F776E206F7574205265736572
:102F1000740A002045787465726E616C2052657386
:102F200065740A00506F77657255700A007374619A
:102F300072740A004739310A47315A350A47393025
:102F40000A4D38340A4D31303453300A4D31343063
:102F50005330004D31303031006572726F7220771E
:102F6000726974696E6720746F2066696C650A0007
:102F7000446F6E6520736176696E672066696C6563
:102F80002E0A004D323900456E6473746F70730001
:102F900025532025632025632025632025630020F9
:102FA0005A3A0020593A0020583A00656E6473740A
:102FB0006F7073206869743A200068616E646C6594
:102FC0002077616974776179203D3D0020202A2AAD
:102FD0002A2A2A2A2A5254535F48616E646C654437
:102FE0006174612A2A2A2A2A2A2A2A2000202D20CE
:102FF0006434200064333A2000202D206432200005
:1030000064313A2000202D206C656E20005650203F
:1030100072656365697665643A20002A2A2A4E6FD4
:103020007A7A6C6554656D705374617475735B3234
:103030005D203D003D3D48656174696E6720446FC9
:103040006E65204368616E67652046696C616D65D9
:103050006E743D3D002020737461727470726F67EE
:103060007265737320004D32320A4D3231003D3D9E
:103070007761697477617920353D3D003D3D776129
:10308000697477617920343D3D003D3D7761697415
:1030900077617920333D3D003D3D7761697477610B
:1030A0007920313D3D00436F6E6669726D20436F3C
:1030B0006E74696E756500506175736553746174E3
:1030C000757300524553554D45204F5054494F4E4E
:1030D000533A0048656174696E672E2E2E00000019
:1030E000436C69636B20746F206865617400000035
:1030F000526573756D696E672E2E2E000000507537
:103100007267696E672E2E2E000000496E7365721D
:103110007420616E6420436C69636B000000436C33
:1031200069636B20746F20636F6E74696E756500E0
:103130000000456A656374696E672E2E2E000000DC
:10314000506C6561736520776169742E2E2E0000C6
:10315000005061726B696E672E2E2E0000002A2AC5
:103160002A496E6974696E672063617264206973AD
:10317000204F4B2A2A2A003D3D6F6E5072696E74B3
:1031800054696D657253746F707065643D3D003DA8
:103190003D6F6E55736572436F6E6669726D5265F1
:1031A0007175697265643D3D005061757365204DB0
:1031B0006F646520537461747573004C6F6164694A
:1031C0006E672E2E2E0000003D3D6F6E46616374CB
:1031D0006F727952657365743D3D00270A0A0000DD
:1031E000272027002027002D0063616E63656C0097
:1031F0005072696E742041626F7274656400554943
:103200002041626F7274656400726573756D65004C
:103210004D3234002A2A2A43506C617920546F6E53
:10322000652A2A2A003D3D6F6E5072696E7454699A
:103230006D65725061757365643D3D00486F6D69E1
:103240006E67204661696C65640050524553454E77
:1032500054004F5554006F70656E005452494747F3
:1032600045524544003A20004D4F54494F4E203AB4
:1032700020004F46460A003A200066696C616D6581
:103280006E74007A5F6D696E00795F6D696E0078AB
:103290005F6D696E005265706F7274696E6720654C
:1032A0006E6473746F70207374617475730A002098
:1032B000746F6F206C6F6E672065787472757369B8
:1032C0006F6E2070726576656E7465640A002063A7
:1032D0006F6C6420657874727573696F6E2070729C
:1032E0006576656E7465640A00486F6D65202573A8
:1032F000204669727374005761726E696E673A2076
:10330000486F6D696E672042756D702044697669FB
:10331000736F72203C20310A00020204000000009A
:1033200000000000000000000000964300009643EB
:103330000000C843000000410000004100000040C0
:10334000FFFFFF00000001000000010000800055A9
:103350005555000000400033333300AAAA2A004923
:1033600092240000002000C7711C0099991900D117
:10337000451700555515003BB113002449120011A3
:10338000111100000010000F0F0F00E3380E004372
:10339000790D00CCCC0C00C3300C00E8A20B00640B
:1033A000210B00AAAA0A00703D0A009DD80900421C
:1033B0007B090092240900DCD308008888080010EB
:1033C00042080000000800F0C10700878707007569
:1033D000500700711C07003EEB0600A1BC06006907
:1033E00090060066660600703E060061180600172B
:1033F000F4050074D105005BB00500B290050062D1
:103400007205005555050078390500B81E05000500
:103410000505004EEC040087D40400A1BD04009013
:10342000A7040049920400C17D0400EE690400C7AE
:10343000560400444404005C3204000821040041A6
:10344000100400000004003FF00300F8E003002631
:10345000D20300C3C30300CCB503003AA803000A9B
:103460009B0300388E0300C08103009F750300D0CA
:10347000690300505E03001D5303003448030091AC
:103480003D03003333030016290300381F03009760
:10349000150300300C0300030303000BFA0200497C
:1034A000F10200BAE802005CE002002DD802002D13
:1034B000D0020059C80200B0C0020031B90200DADF
:1034C000B10200AAAA0200A0A30200BC9C0200FA5A
:1034D0009502005C8F0200DF8802008282020045B4
:1034E0007C02002776020027700200436A02007CFB
:1034F000640200D05E02003F590200C8530200FF80
:10350000FDFCFAF8F6F4F2F0EEECEAE9E7E5E3E1C7
:10351000E0DEDCDAD9D7D5D4D2D0CFCDCBCAC8C77C
:10352000C5C3C2C0BFBDBCBAB9B7B6B4B3B2B0AF01
:10353000ADACAAA9A8A6A5A4A2A1A09E9D9C9A995B
:10354000989795949392908F8E8D8B8A8988878691
:1035500084838281807F7E7D7B7A797877767574AB
:10356000737271706F6E6D6C6B6A696867666564A3
:10357000636261605F5E5D5C5B5A5958585756558F
:103580005453525150504F4E4D4C4B4A4A49484764
:103590004646454443424241403F3E3E3D3C3B3B24
:1035A0003A39383837363535343332323130302FD6
:1035B0002E2E2D2C2B2B2A2929282727262525247A
:1035C000232322212120201F1E1E1D1C1C1B1B1A11
:1035D000191918181716161515141313121211119C
:1035E000100F0F0E0E0D0D0C0C0B0A0A090908081E
:1035F0000707060605050404030302020100003D57
:103600003D6F6E5072696E7454696D65725374616A
:10361000727465643D3D0053544F505045442E2014
:10362000005072696E7465722073746F7070656497
:103630002064756520746F206572726F72732E201E
:1036400046697820746865206572726F7220616EB9
:103650006420757365204D39393920746F20726587
:1036600073746172742E202854656D706572617474
:103670007572652069732072657365742E205365B9
:103680007420697420616674657220726573746158
:103690007274696E67290A00206572726F72202D3C
:1036A00020726573746172742077697468204D3973
:1036B00039390A00424C546F756368002121205348
:1036C000544F502063616C6C656420626563617562
:1036D0007365206F6620000000964300009643004B
:1036E00000C843000000000000000000000000537C
:1036F0006176696E67204457494E204C43442073DD
:10370000657474696E672066726F6D20454550520E
:103710004F4D0A003D3D6F6E53657474696E67735B
:1037200053746F7265643D3D0053657474696E67D0
:10373000732053746F72656400290A0020627974E3
:1037400065733B20637263200053657474696E6710
:10375000732053746F7265642028000A20696E69B3
:1037600074207A70726F62655F7A6F6666736574D3
:10377000203D20003D3D6F6E436F6E666967757238
:103780006174696F6E53746F7265526561643D3D1B
:1037900000454550524F4D20496E697469616C690E
:1037A0007A65640A0048617264636F6465642044EA
:1037B000656661756C742053657474696E677320F7
:1037C0004C6F616465640020286D6D2900203B20EA
:1037D0004C6576656C696E67200020204D34323070
:1037E0002053004175746F20426564204C657665F6
:1037F0006C696E670020204D393030204B004C69D9
:103800006E65617220416476616E636500205000D0
:1038100020440020204D35393120530046696C6129
:103820006D656E742072756E6F75742073656E733E
:103830006F7200204A00202047323920572049006B
:1038400020204D3134392043203B20556E6974735C
:1038500020696E2043656C736975730A0054656D49
:10386000706572617475726520556E69747300209D
:1038700020473231203B004C696E65617220556EE5
:1038800069747300A400D20011241FBECFEFD1E2EF
:10389000DEBFCDBF00E00CBF84B78093F81914BE23
:1038A0000FB6F894A89580916000886180936000BD
:1038B000109260000FBE16E0A0E0B2E0E6E9F9E980
:1038C00002E00BBF02C007900D92A034B107D9F7F8
:1038D00029E1A0E4B6E001C01D92A83FB207E1F7DC
:1038E0001CE1C3E4DCE100E006C021970109802F60
:1038F000FE010F943D49C234D10780E00807A9F7C3
:103900000F9436360D94BA4C0C940000CF93DF938D
:10391000C0911C13D0911D1381E0CE31D105E4F08C
:1039200020E030E040E05FE36091181370911913DC
:1039300080911A1390911B130F9446490F948A4A51
:103940006C1B7D0B77FF03C071956195710981E058
:10395000633071050CF080E0DF91CF910895CF9333
:10396000DF93DB01F9019C919130C1F0943080F03C
:1039700094509C938830D1F480819181009771F0AC
:10398000019791838083480F591FEA01188206C06E
:103990008C3539F49C5F9C93943041F4DF91CF9146
:1039A00008958B3339F781E08C93F8CF20813181F2
:1039B000B9016F5F7F4F71836083420F531FEA012C
:1039C0008883808191818F3591056CF7E7CF0F93C4
:1039D0001F9381E00091A5151091A6152091A715C0
:1039E0003091A8154091A1155091A2156091A31591
:1039F0007091A415041715072607370708F480E00F
:103A00001F910F91089590E080E008952091520752
:103A1000833021F425FD0CC024FD0CC030E0A90149
:103A200002C0559547958A95E2F7CA0181700895BD
:103A300081E0089580E0089580916D0784FD0BC0BA
:103A400080916F0787FD07C090917007937081E0A8
:103A500019F480E0089581E00895CF92DF92EF920B
:103A6000FF92CF93DF93EC01CC80DD80EE80FF806E
:103A700027E137EB41ED58EBC701B6010F946D4BD1
:103A800087FD23C023E030E046E953E4C701B601D7
:103A90000F9483421816CCF0C880D980EA80FB804E
:103AA00027E137EB41ED58EBC701B6010F946D4BA1
:103AB00087FD0BC0C1E023E030E046E953E4C701D5
:103AC000B6010F94834218160CF4C0E08C2FDF91DE
:103AD000CF91FF90EF90DF90CF900895682F70E026
:103AE00090E080E00F9489422091C4193091C5196B
:103AF0004091C6195091C7190F94E8422091BC1902
:103B00003091BD194091BE195091BF190D9446498D
:103B1000682F70E090E080E00F9489422091C019F6
:103B20003091C1194091C2195091C3190F94E842C4
:103B30002091B8193091B9194091BA195091BB1917
:103B40000D9446492FEB280F2A3108F047C0E22F89
:103B5000F0E080916D0790916E07A0916F07B09192
:103B6000700704C0B695A795979587952A95D2F7C3
:103B700080FD02C081700895ED5AF84FE081EE2378
:103B800041F18091580D9091590DE80FF92FF11DD9
:103B9000808190ED980F9A3030F08E3251F481810F
:103BA00080538A3098F4F0934307E093420781E012
:103BB00008958D3211F08B3249F4818190ED980F88
:103BC0009A3088F38E3211F48281EACFF0E0E0E09F
:103BD000EACF1092430710924207E9CF80E00895A0
:103BE000B1DF882341F081E0209142073091430703
:103BF000232B09F480E008958091AF1981110EC044
:103C000020916802309169022150310981E0409190
:103C1000481350914913421753070CF080E0089560
:103C2000269A2E9A08952F923F924F925F926F920A
:103C30007F928F929F92AF92BF92CF92DF92EF923C
:103C4000FF920F931F93CF93DF93D62FC72FFC01C3
:103C500080809180A280B380C501B40120E831E565
:103C600041E050E00F94AD48C9016DE671E00F945A
:103C700016496B017C01C501B40120E13EE040E042
:103C800050E00F94AD48CA01B90128E130E040E0AE
:103C900050E00F94AD48362E272E062F172F8CE3B9
:103CA000482E512C612C712CC501B401A301920145
:103CB0000F94AD48B62EA72ECA01B901A3019201F7
:103CC0000F94AD48CB01C114D10479F1AF92BF92EA
:103CD0007F936F932F923F92FF92EF92DF92CF925A
:103CE0008AEA95E19F938F93CF93DF930F941C42C1
:103CF0008DB79EB70E960FB6F8949EBF0FBE8DBFC0
:103D00008D2F9C2FDF91CF911F910F91FF90EF90FE
:103D1000DF90CF90BF90AF909F908F907F906F90EB
:103D20005F904F903F902F900895E114F104C9F0F7
:103D3000AF92BF927F936F932F923F92FF92EF9239
:103D40008AE995E19F938F93CF93DF930F941C4261
:103D5000EDB7FEB73C960FB6F894FEBF0FBEEDBFB1
:103D6000CFCF012BB9F0AF92BF927F936F932F9279
:103D70003F928EE895E19F938F93CF93DF930F94BB
:103D80001C428DB79EB70A960FB6F8949EBF0FBE21
:103D90008DBFB6CF892BA9F0AF92BF927F936F935F
:103DA00086E895E19F938F93CF93DF930F941C4206
:103DB000EDB7FEB738960FB6F894FEBF0FBEEDBF55
:103DC0009FCFAF92BF9282E895E19F938F93CF935D
:103DD000DF930F941C420F900F900F900F900F9055
:103DE0000F908ECFAB01BC014093A5155093A61543
:103DF0006093A7157093A8158DE097E10C9457D0A8
:103E0000AF92BF92CF92DF92EF92FF920F931F93E8
:103E1000CF935C016B018A018852994F7C01DC01D0
:103E2000CC91C7FF3DC0FB0111821082CF5FD7014B
:103E3000CC93CC300CF053C08CE08A9DF0018B9D6C
:103E4000F00D1124CF018C0F911DC7FD9A95209183
:103E5000B4132817190609F00CF441C0F6012081AB
:103E60003181FC01EE0FFF1FE80FF91FE459FC4EF2
:103E700081819281820F931FD80111969C938E931A
:103E8000808187FF3DC061E08F77CF911F910F91B7
:103E9000FF90EF90DF90CF90BF90AF900C944E9F2B
:103EA0008CE08A9DF0018B9DF00D1124CF018C0FC9
:103EB000911DC7FD9A952091B4132817190609F092
:103EC0000CF4B4CFFC01EE0FFF1FE80FF91FE4590B
:103ED000FC4E808160E08F770E944E9FA7CFF60155
:103EE0008081918104968034FCE99F0710F480E47E
:103EF0009CE9D80111969C938E938FEFF7018083F4
:103F0000CF911F910F91FF90EF90DF90CF90BF90D6
:103F1000AF9008950F931F93CF93DF9300D01F921C
:103F2000CDB7DEB79C0106E91CE090E1EEE5FDE0CF
:103F3000D80101900D929A95E1F7F9012081318124
:103F400042815381F80160857185828593850F9444
:103F50004649F801608771878287938780E090E007
:103F6000A0EAB0E489839A83AB83BC83CE01019637
:103F70000F94EA090F900F900F900F90DF91CF915F
:103F80001F910F9108952F923F924F925F926F92DF
:103F90007F928F929F92AF92BF92CF92DF92EF92D9
:103FA000FF921F93CF93DF93CDB7DEB72C970FB659
:103FB000F894DEBF0FBECDBF7A011901DC012D914F
:103FC0003D914D915C912D833E834F835887FB013A
:103FD000408051806280738080905E0D90905F0D74
:103FE000A090600DB090610DA50194016D817E815E
:103FF0008F8198850F94834281110EC011E0A30137
:1040000092016091620D7091630D8091640D9091A9
:10401000650D0F948342811110E0D1012D913D91E6
:104020004D915C9129873A874B875C87F701C08067
:10403000D180E280F380209102023091030240910E
:10404000040250910502C701B6010F9483428823F0
:1040500009F44EC0C0920202D0920302E092040220
:10406000F092050280916A0D90916B0DA0916C0DFC
:10407000B0916D0D4091620D5091630D6091640D92
:104080007091650D8092960C9092970CA092980C6E
:10409000B092990C40939A0C50939B0C60939C0C9B
:1040A00070939D0CC0929E0CD0929F0CE092A00C3D
:1040B000F092A10C8093A20C9093A30CA093A40C5B
:1040C000B093A50C20E030E040E05FE36091370D55
:1040D0007091380D8091390D90913A0D0F94E8420E
:1040E00069837A838B839C83CE0101960F94EA09BE
:1040F0002D813E814F8158852093960C3093970CEB
:104100004093980C5093990C40929A0C50929B0CAF
:1041100060929C0C70929D0CD1012D913D914D911E
:104120005C916091A20C7091A30C8091A40C909171
:10413000A50C0F9446496093A20C7093A30C809336
:10414000A40C9093A50C11112FC020E030E0A90120
:1041500069857A858B859C850F948342811133C054
:1041600060E070E088EC92E469837A838B839C83BF
:10417000CE0101960F94EA092C960FB6F894DEBF93
:104180000FBECDBFDF91CF911F91FF90EF90DF90D9
:10419000CF90BF90AF909F908F907F906F905F90E7
:1041A0004F903F902F9008952AEF3EE74AE25FE359
:1041B00060913B0D70913C0D80913D0D90913E0DB5
:1041C0000F94E842D1CF60E070E080EA91E4CCCF78
:1041D0008091420790914307009731F04AE050E008
:1041E00070E060E00D94A44060E070E0CB010895C1
:1041F000CF93DF9300D01F92CDB7DEB780E090E081
:10420000A0EAB0E489839A83AB83BC8361E0CE01EA
:1042100001960F946E0B0F900F900F900F90DF91FF
:10422000CF9108950F931F93CF93DF9300D000D0C9
:104230001F921F92CDB7DEB78B01FC0123A5211180
:1042400002C00E941D891D821E821F82188620E0E6
:1042500030E040E05FE36091660D7091670D809102
:10426000680D9091690D0F94464969837A838B8319
:104270009C839E012B5F3F4FAE014F5F5F4F62E615
:104280007DE08EE59DE07FDE1D821E821F82188606
:1042900020E030E040E05FE3F801608571858285D1
:1042A00093850F94464969837A838B839C83B801F5
:1042B0006C5F7F4F9E012B5F3F4FAE014F5F5F4FA3
:1042C000C80161DE28960FB6F894DEBF0FBECDBFE1
:1042D000DF91CF911F910F910895809142079091A6
:1042E0004307009731F04AE050E070E060E00D9441
:1042F000773F60E070E0CB010895CF93DF93EB014F
:104300006FDC882311F0E9DFEB01CE01DF91CF9163
:104310000895E3DF97FD0AC0E0DF6F3F7105810577
:10432000910509F02CF4D9DF862F089580E00895D7
:104330008FEF0895CF93C62F53DC882311F0CF91D0
:10434000E8CF8C2FCF910895809142079091430739
:10435000892B39F0DEDF91E0811101C090E0892FD7
:10436000089591E0FCCFCF93DF93C82FD62F38DC90
:10437000882319F0DF91CF91E7CF8C2FE3DB8111F8
:1043800001C08D2FDF91CF910895A7DFCB01089554
:10439000CF93DF93EB0124DC882319F0DF91CF91D9
:1043A000F4CFCE01DF91CF9108950F931F93CF9358
:1043B0008091420790914307009709F1FC018F011A
:1043C000C1912C2F2F7DA1F0C53431F0C53621F0DD
:1043D000C83511F0C83799F7F801108270E060E035
:1043E0000F94213EF801C083CF911F910F91089542
:1043F00070E060E0CF911F910F910D94213E60E03D
:1044000070E0CB01F1CFCF92DF92EF92FF926A0181
:104410007B01E6DB882329F0FF90EF90DF90CF90BF
:10442000C4CFC701B601FF90EF90DF90CF90089501
:1044300080919518811103C081E00F94D90E80E01E
:1044400008958F929F92AF92BF92CF92DF92EF9298
:10445000FF920F931F93CF93DF93109272071092E6
:1044600071072FE320937607109275071092740757
:104470001092730710926D0710926E0710926F07DB
:10448000109270079C01F90190812F5F3F4F90328D
:10449000D1F39E34C9F4818190ED980F9A3020F0C9
:1044A0008D3211F08B3281F432969F012F5F3F4F96
:1044B000808180538A3008F47BC09F012F5F3F4F7B
:1044C0008081803209F476C0F093590DE093580D45
:1044D0008F010F5F1F4FC0816AE270E0C8010F9427
:1044E000504C009731F0FC01319780818032E1F32C
:1044F0001182CD3429F0C43519F0C73409F04BC00E
:10450000F80180810F5F1F4F8032D1F380538A30D2
:1045100008F041C0C093760730E020E04AE0DF01B8
:104520001196429FC001439F900D11249C0120537E
:1045300031098081280F311D87FD3A95818190EDE9
:10454000980F9A30C8F130937507209374078E3214
:1045500061F4329690E04AE0DF0131968C9150EDA3
:10456000580F5A3058F190937307CD01DC01019632
:104570004C914032D9F3CD3489F52E31310539F0E3
:1045800018F52731310519F02C31310539F5B09383
:104590007207A0937107DF91CF911F910F91FF9048
:1045A000EF90DF90CF90BF90AF909F908F90089545
:1045B000F9017BCFF90181CFFD01B1CF949F800D2F
:1045C000112490ED980FC8CF2537310538F02737E3
:1045D0003105E8F2203A83E03807C9F2D091580D4E
:1045E00040E050E0BA0110E000E0C12CD12C76018F
:1045F000C394FD0131968C91882309F47FC08132E8
:10460000E1F4CD34D1F420323105B9F440936D0793
:1046100050936E0760936F0770937007F093720763
:10462000E093710763E270E0CF010F94504C009764
:1046300009F4B1CFFC011082AECF81548A3108F069
:1046400058C0DF019D91903291F0A0EDA90FAA30E2
:10465000E8F09E3271F4918190539A30B8F00115D0
:10466000110519F48F010150110990E013C0FD01EB
:10467000E8CF9D3211F09B3291F79181A0EDA90F07
:10468000AA3020F09E3259F79281E6CF9E2F9D1BD3
:10469000309759F3A82FB0E04601570104C0880CA9
:1046A000991CAA1CBB1C8A95D2F7482959296A294A
:1046B0007B29AD5AB84F9C9380818154DF018A31A8
:1046C00008F497CFDF018191882309F492CF90ED10
:1046D000980F9A30B8F393ED980F923098F38B328D
:1046E00089F3CD010196EC91E03209F082CFDC0133
:1046F000F8CF0115110501F78D01DECF1093720778
:104700000093710740936D0750936E0760936F0796
:104710007093700740CF81E080934B130895FC01A4
:10472000659175918591949108958091951888234C
:1047300019F080E00F94D90E80E00895682F70E0A2
:1047400090E080E00C94887F9B01AC01485F5F4F54
:10475000BC016C5F7F4F17CC2F923F924F925F92BC
:104760006F927F928F929F92AF92BF92CF92DF9281
:10477000EF92FF920F931F93CF93DF93CDB7DEB7E6
:10478000A6970FB6F894DEBF0FBECDBF8C011B01FC
:104790005A87498740905E0D50905F0D6090600D84
:1047A0007090610D8090620D9090630DA090640DEB
:1047B000B090650DDB018D919D910D90BC91A02D68
:1047C0008B8B9C8BAD8BBE8B9C01AD01C301B20169
:1047D0000F9445496B017C01D10114968D919D91F7
:1047E0000D90BC91A02D8F8B988FA98FBA8F9C01B3
:1047F000AD01C501B4010F9445496B8F7C8F8D8F3E
:104800009E8FA985BA858D919D910D90BC91A02D0B
:104810008B879C87AD87BE879C01AD01C301B20128
:104820000F9445496F8F78A389A39AA3A985BA8568
:1048300014968D919D910D90BC91A02D8F87988B92
:10484000A98BBA8B9C01AD01C501B4010F944549F8
:104850006BA37CA38DA39EA3A7019601C701B601FC
:104860000F94E8426B017C012B8D3C8D4D8D5E8D4C
:10487000CA01B9010F94E8429B01AC01C701B6011E
:104880000F9446494B015C012B893C894D895E8917
:104890006B857C858D859E850F9445492B013C0158
:1048A0002F89388D498D5A8D6F85788989899A89A4
:1048B0000F9445496B017C01A3019201C301B20130
:1048C0000F94E8422B013C01A7019601C701B601F4
:1048D0000F94E8429B01AC01C301B2010F94464919
:1048E0000F94B34B6B017C012F8D38A149A15AA1C4
:1048F000CA01B9010F94E8422B013C012BA13CA154
:104900004DA15EA1CA01B9010F94E8429B01AC011F
:10491000C301B2010F9446499B01AC01C501B4012A
:104920000F946D4B1816ACF520E030E0A901C701DB
:10493000B6010F946D4B87FF29C0C701B60190588F
:1049400020E030E040EA50E40F946D4B18160CF56F
:10495000A10169857A85C801FFDEA6960FB6F89495
:10496000DEBF0FBECDBFDF91CF911F910F91FF90A2
:10497000EF90DF90CF90BF90AF909F908F907F90FF
:104980006F905F904F903F902F900895C701B601B0
:10499000D7CF20E030E040E050E4C501B4010F94EF
:1049A0006D4B18161CF4B101C8013CDC19821A8247
:1049B0001B821C82BE016F5F7F4FC101C5DE2DECE3
:1049C0003CEC4CEC5CE3C701B6010F94E8429B0160
:1049D000AC01F80160817181828193810F94E8427A
:1049E0006D837E838F839887D8019B968C919B974C
:1049F0008823C1F02AE939E949E95FE314966D910A
:104A00007D918D919C9117970F94E84269837A83E9
:104A10008B839C83BE016F5F7F4F86E99CE094DEB1
:104A2000F80113A6BE016B5F7F4F89859A858CDEE6
:104A300094CF4F925F926F927F928F929F92AF929C
:104A4000BF92CF92DF92EF92FF920F931F93CF937B
:104A5000DF93CDB7DEB768970FB6F894DEBF0FBE11
:104A6000CDBF7C01FB018081C42EC80EF4E0FC1593
:104A700008F4ADC0FB01D180022F0D0D053008F008
:104A8000A6C0ED2DF0E0E85CF84FE081F0E0082EE4
:104A900002C0F595E7950A94E2F7E0FF98C0E02F91
:104AA000F0E0E85CF84FE081F0E00C2C02C0F595F6
:104AB000E7950A94E2F7E0FF8AC0122F742E28D8F7
:104AC0004B015C01672D660F770B072E000C880BDE
:104AD000990B0F9489422B013C01AC019B01C5014C
:104AE000B4010F9446496D877E878F87988B8C2DF4
:104AF0000FD8A30192010F94454969837A838B8370
:104B00009C838D2D0E946E1D4B015C01612F660FF1
:104B1000770B072E000C880B990B0F9489422B0101
:104B20003C01AC019B01C501B4010F944649698B5E
:104B30007A8B8B8B9C8B802F0E946E1DA301920120
:104B40000F9445496D837E838F839887F701808515
:104B50009185A285B38589879A87AB87BC878D8B22
:104B60009E8BAF8BB88F4BE251E061E070E0CE01DD
:104B700041960E94F0FF4BE251E061E070E0CE010F
:104B800005960E94F0FF4BE251E061E070E0CE013B
:104B90000D960E94F0FF4BE251E061E070E0CE0123
:104BA00001960E94F0FFCE010D960E942D1D8823D4
:104BB00071F0CE0101960E942D1D882341F0AE01B7
:104BC0004F5F5F4FBE01635F7F4FC701C5DD6896D2
:104BD0000FB6F894DEBF0FBECDBFDF91CF911F910E
:104BE0000F91FF90EF90DF90CF90BF90AF909F908C
:104BF0008F907F906F905F904F9008958F929F92CB
:104C0000AF92BF92CF92DF92EF92FF92CF93DF935A
:104C1000CDB7DEB760970FB6F894DEBF0FBECDBF3D
:104C200080E090E0A6E1B3E48D839E83AF83B887F4
:104C30008D879E87AF87B88BE091C413F091C51321
:104C400080809180A280B38020E030E0A901C5017E
:104C5000B4010F9446496B017C0120E030E040E450
:104C600050E40F94834287FF05C0C12CD12C90E4FF
:104C7000E92EFE2CC982DA82EB82FC8220E030E051
:104C800046E953E4C501B4010F9446496B017C0128
:104C900020E030E844E953E40F946D4B18163CF4DF
:104CA000C12C80E8D82E84E9E82E83E4F82EC9864A
:104CB000DA86EB86FC8680E1FE013196A0EBB7E157
:104CC00001900D928A95E1F760960FB6F894DEBFD9
:104CD0000FBECDBFDF91CF91FF90EF90DF90CF90CF
:104CE000BF90AF909F908F900895CF92DF92EF92F8
:104CF000FF92CF936B017C01C42F8091BB0B8F5F20
:104D000009F4B5C08093BB0B8091BB0B80936A0CF8
:104D100020E030E040E752E46091330270913402C9
:104D200080913502909136020F94E8420F948F4A99
:104D30007093CD0B6093CC0BC092CE0BD092CF0B67
:104D4000E092D00BF092D10B8091690CC0FB80F9FE
:104D50008093690C8CE0E7E9F8E1A2EDBBE00190FB
:104D60000D928A95E1F78CE0E3EAF9E1AEEDBBE064
:104D700001900D928A95E1F78091AF179091690C9F
:104D800080FB94F99093690C882381F08091AB1794
:104D90009091AC17A091AD17B091AE178093EA0B2C
:104DA0009093EB0BA093EC0BB093ED0B8091481319
:104DB000909149139093EF0B8093EE0B80911C130D
:104DC00090911D139093F10B8093F00B8091540DF3
:104DD0008093F20B8091690C90918F0C90FB83F97A
:104DE0008093690C8091900C9091910CA091920C01
:104DF000B091930C8093F30B9093F40BA093F50B6D
:104E0000B093F60B0F9411126093640C7093650CC1
:104E10008093660C9093670C809152078093680C86
:104E200090919B078091690C93FB81F99091AF1948
:104E300090FB82F98093690C80E00E948EF540E03F
:104E400050E0BA018EEA95E10E9457D040EB50E065
:104E50006BEB7BE08EEA95E10E94EAD08EEA95E169
:104E6000CF91FF90EF90DF90CF900C940CD481E025
:104E700049CF4F925F926F927F928F929F92AF92A3
:104E8000BF92CF92DF92EF92FF920F931F93CF9337
:104E9000DF9300D01F92CDB7DEB719821A821B8232
:104EA0001C8290EA892E92E0992ECE0101965C0137
:104EB00026E9C22E2CE0D22E3EE5E32E3DE0F32E75
:104EC00010E000E0F40181914F010E94F01DF50116
:104ED00081935F01882309F4E8C067DA2B013C0164
:104EE000802F0E94061D882309F4CFC0F70120817E
:104EF000318142815381C301B2010F944649F601C9
:104F000060837183828393830F5F1F4FF4E0CF0E22
:104F1000D11C84E0E80EF11C0330110599F685E4FC
:104F20000E94F01D8C83882309F4CAC03EDA6B010D
:104F30007C0183E00E94061D882371F020916A0D98
:104F400030916B0D40916C0D50916D0DC701B60104
:104F50000F9446496B017C01C092A20CD092A30C25
:104F6000E092A40CF092A50C80916B0C882389F13F
:104F70008091A91582FF2DC087FD2BC08C818823CD
:104F800041F18981811103C08A81882311F12DECBF
:104F90003CEC4CE45DE36091C40B7091C50B8091D7
:104FA000C60B9091C70B0F9446499B01AC016091D1
:104FB000660D7091670D8091680D9091690D0F9449
:104FC0006D4B181634F440E060E070E080E090E44F
:104FD0008CDE40E050E0BA0186E415DA20E030E0F3
:104FE000A9010F946D4B18167CF4DFD920E030E056
:104FF00040E752E40F94224A6093330270933402E4
:10500000809335029093360280919B0783FD28C0E0
:1050100080918118882321F120916A0D30916B0DC8
:1050200040916C0D50916D0D6091A20C7091A30C8C
:105030008091A40C9091A50C0F94454920918E1855
:1050400030918F1840919018509191180F944649C3
:1050500060938E1870938F18809390189093911886
:105060000F900F900F900F90DF91CF911F910F91A4
:10507000FF90EF90DF90CF90BF90AF909F908F9078
:105080007F906F905F904F900895F801EE0FFF1F93
:10509000EE0FFF1FE259F24F20813181428153818F
:1050A000C301B2010F9445492ACFF7018081918154
:1050B000A281B381F60180839183A283B38324CF3D
:1050C00080916A0D90916B0DA0916C0DB0916D0D5A
:1050D0008093A20C9093A30CA093A40CB093A50C66
:1050E00043CFEBEBFBE080EBDF011D928A95E9F704
:1050F000089580916B0C811103C0F3DF0C9417F6B7
:105100008091A91582FF08C087FD06C040E060E0DD
:1051100070E080E090E4E9CD08958091BB0B882396
:1051200061F090916A0C891308C08091A91584FFE1
:1051300004C087EF9BE00C94B4D780E00895FC0195
:10514000238121110C940CD40895CF93DF93C09147
:105150004813D0914913209729F16091441370911D
:10516000451380914613909147130F948A4A6E5FBE
:105170007F4F24976C177D07ACF4709306186093EB
:1051800005180E94EB9F605A75418F4F9F4F6093A7
:105190000718709308188093091890930A18DF91E4
:1051A000CF910895109207181092081810920918BC
:1051B00010920A18F4CFCF92DF92EF92FF921F93D2
:1051C000CF93DF93182F662351F010923707109278
:1051D00033071092340710923507109236070E9459
:1051E000EB9F6B017C018091330790913407A09174
:1051F0003507B0913607A7019601281B390B4A0BDA
:105200005B0BDA01C901B7FD3DC02091370717FDDF
:1052100013C0412F012E000C550B4C5F5F4F822FA6
:10522000022E000C990B4817590764F184EF91E0A6
:10523000A0E0B0E0211724F488EE93E0A0E0B0E015
:105240008C0D9D1DAE1DBF1D8093330790933407B9
:10525000A0933507B09336072170C22F30E0D32FCB
:1052600084E28C9FB0018D9F700D7C1B11246059CE
:105270007C4F82E390E00F941318809137078F5F83
:1052800080933707DF91CF911F91FF90EF90DF90D0
:10529000CF900895CF93DF93C0911C13D0911D132D
:1052A000209729F1609118137091191380911A13A6
:1052B00090911B130F948A4A6E5F7F4F24976C174F
:1052C0007D07ACF47093FC176093FB170E94EB9F73
:1052D000605E70448D4F9F4F6093FD177093FE1773
:1052E0008093FF1790930018DF91CF91089510924B
:1052F000FD171092FE171092FF1710920018F4CFAE
:10530000CF93DF9390919B0793FD3FC0C82F83E518
:105310000E94F01DD82F882389F137D88C38910549
:10532000BCF590931D1380931C13B4DF60911C1384
:1053300070911D13072E000C880B990B0F94894256
:10534000209118133091191340911A1350911B1387
:105350000F946D4B60E01816F4F484E496E10F941A
:10536000641961E06C278C2F0E94A4DDCC2369F0C6
:1053700060E08D2FDF91CF910C9473D9CC2329F06D
:1053800082E50E94F01D8111C8CFDF91CF91089571
:105390008CE890E0C6CF85E396E1E1CFCF93C1E002
:1053A00020E030E0A9016091C0197091C11980918D
:1053B000C2199091C3190F948342811101C0C0E0BA
:1053C0008C2FCF910895CF93C82F882319F0E6DF53
:1053D0008823C9F080918F0C8C17A9F00F94A3003B
:1053E0008EE59DE00F94C60080918F0C91E0892797
:1053F00080938F0C882321F08EE59DE00E9432FF80
:10540000CF910D94740CCF9108958F929F92AF928B
:10541000BF92EF92FF920F931F93CF93DF9380E0A1
:10542000D2DF1092BC191092BD191092BE191092C1
:10543000BF191092B8191092B9191092BA19109296
:10544000BB191092C4191092C5191092C619109266
:10545000C7191092C0191092C1191092C219109256
:10546000C31906EA1CE0C0E0812C912C80ECA82E28
:105470008FE7B82E7801D0E0F70181929192A19246
:10548000B1927F016D2F8C2F0E945388DF5FD53042
:1054900099F7CF5F0C5E1F4FC53061F7DF91CF9159
:1054A0001F910F91FF90EF90BF90AF909F908F90C2
:1054B00008954F925F926F927F928F929F92AF92D8
:1054C000BF92CF92DF92EF92FF920F931F93CF93F1
:1054D000DF93EC012091B8193091B9194091BA19B4
:1054E0005091BB19688179818A819B810F944549CC
:1054F0006B017C012091BC193091BD194091BE19FE
:105500005091BF196C817D818E819F810F94454997
:105510004B015C01A701960160912B0770912C074C
:1055200080912D0790912E070F948342882309F4D0
:1055300050C0C0922B07D0922C07E0922D07F0921A
:105540002E07209123073091240740912507509181
:105550002607C701B6010F94E8422B013C010F94C6
:10556000BB4A6B017C0120E030E0A9010F9483422B
:1055700087FD70C020E030E040E450E4C701B60190
:105580000F946D4B18162CF4C12CD12CC0E4EC2ECA
:10559000FE2CA7019601C301B2010F944549609307
:1055A0001B0770931C0780931D0790931E07C7016C
:1055B000B6010F948A4A60931907062E000C770BE8
:1055C0006F5F7F4F6430710514F064E070E06093AA
:1055D0001707D091150710911907A5019401609143
:1055E0002F077091300780913107909132070F9407
:1055F0008342811133C0D11381C02091FD063091C7
:10560000FE064091FF065091000760911B077091C4
:105610001C0780911D0790911E070F94E84220916E
:1056200001073091020740910307509104070F943E
:105630004649DF91CF911F910F91FF90EF90DF903E
:10564000CF90BF90AF909F908F907F906F905F9022
:105650004F900895C12CD12C76019BCF80922F07BB
:1056600090923007A0923107B0923207209127071D
:10567000309128074091290750912A07C501B401AC
:105680000F94E8424B015C010F94BB4A6B017C0113
:1056900020E030E0A9010F94834287FDF3C020E0B1
:1056A00030E040E450E4C701B6010F946D4B18168A
:1056B0002CF4C12CD12CB0E4EB2EFE2CA7019601CA
:1056C000C501B4010F94454960931F0770932007EB
:1056D0008093210790932207C701B6010F948A4A4D
:1056E00060931A07062E000C770B6F5F7F4F6430B4
:1056F000710514F064E070E060931807C0911A0718
:10570000D11305C0809116078C1709F470C08091E1
:10571000190790911A0790931607809315070C2E7E
:10572000000CDD0B25E01203C0011124FC01EC0F7D
:10573000FD1FEE0FFF1FEE0FFF1FEA55F34F2081F5
:105740003181428153812093110730931207409396
:1057500013075093140700911807002E000C110B2B
:10576000FC01E00FF11FEE0FFF1FEE0FFF1FEA55C8
:10577000F34F60817181828193810F9445496093D9
:105780000D0770930E0780930F07909310072091D9
:10579000170735E02303F0011124CE0FDF1FCC0FD4
:1057A000DD1FCC0FDD1FCA55D34F288139814A81B7
:1057B0005B812093090730930A0740930B075093AE
:1057C0000C07E00FF11FEE0FFF1FEE0FFF1FEA5552
:1057D000F34F60817181828193810F944549609379
:1057E000050770930607809307079093080780903A
:1057F0001F0790902007A0902107B09022072091CA
:105800000D0730910E0740910F0750911007C50109
:10581000B4010F94E8422091110730911207409192
:105820001307509114070F9446496B017C01C092F5
:105830000107D0920207E0920307F092040720913B
:105840000507309106074091070750910807C501E9
:10585000B4010F94E8422091090730910A07409162
:105860000B0750910C070F944649A70196010F941E
:1058700045496093FD067093FE068093FF06909362
:105880000007BBCEC12CD12C760118CFEBE2F7E09C
:1058900080EF9FEFA9E7B4EC84839583A683B78359
:1058A00080839183A283B383E5E1F7E08DE981836F
:1058B000808308958F929F92AF92BF92CF92DF9292
:1058C000EF92FF92FC0198E0A0ECB9E101900D92FB
:1058D0009A95E1F788E0FB01A8EBB9E101900D9200
:1058E0008A95E1F7C090C019D090C119E090C21913
:1058F000F090C31920E030E0A901C701B6010F9470
:1059000083428823E1F1A701960160E070E080E81E
:105910009FE30F94224A6B017C018090C419909000
:10592000C519A090C619B090C71920E030E0A901B0
:10593000C501B4010F948342882329F1A501940184
:1059400060E070E080E89FE30F94224AC092230752
:10595000D0922407E0922507F0922607609327074C
:10596000709328078093290790932A07FF90EF9060
:10597000DF90CF90BF90AF909F908F900895C12CF3
:10598000D12C7601CACF60E070E0CB01DFCFEFE62B
:10599000F0E0808182608083089580915012909120
:1059A0005112892B79F48091501290915112892BC8
:1059B00049F4209150123091511281E0232B19F4B7
:1059C00080E0089581E00895CF92DF92EF92FF92F8
:1059D0006B017C0183E3C816D104E104F10470F08B
:1059E00082E3C81AD108E108F10862E370E080E0C0
:1059F00090E00E94B89F0E944FE0ECCFC701B60133
:105A00000E94B89FFF90EF90DF90CF900C944FE0F2
:105A10001092B70B8091D3179091D417A091D517FE
:105A2000B091D6178093CF179093D017A093D1172A
:105A3000B093D2170895909153121092531292304E
:105A4000B1F09430B9F09130D9F4882319F0813055
:105A500021F008959093B80B089582E08093B80BDD
:105A60008091B70B882361F01092B007D1CF1092CC
:105A7000B90B089580E192E39093F2078093F107C8
:105A800008956C98749AC4CF9091A91594FB8827B7
:105A900080F994FF06C081E090911017911101C028
:105AA00080E00895F1DF882339F08091A91582FB09
:105AB000882780F991E08927089580916C0C8111E5
:105AC00005C080915212823009F0ECCF81E0089538
:105AD0000D940E1781E00D94611F81E00895DC01A3
